{
  "transactions": [
    {
      "hash": "0x51dc9d31552d03a82ac94224ad750bf73c30e728d7d8ae49e46c61c80aede0d9",
      "transactionType": "CALL",
      "contractName": null,
      "contractAddress": "0x779877a7b0d9e8603169ddbd7836e478b4624789",
      "function": "transferAndCall(address,uint256,bytes)",
      "arguments": [
        "0x9DdfaCa8183c41ad55329BdeeD9F6A8d53168B1B",
        "3000000000000000000",
        "0xda218e19b01323676b95fc6b1a436307b3bcee31604aca50aaf6aa02ac89ae0e"
      ],
      "transaction": {
        "from": "0x9c0c78085504642a852020b28d4a15826ab36e94",
        "to": "0x779877a7b0d9e8603169ddbd7836e478b4624789",
        "gas": "0x1c1ff",
        "value": "0x0",
        "input": "0x4000aea00000000000000000000000009ddfaca8183c41ad55329bdeed9f6a8d53168b1b00000000000000000000000000000000000000000000000029a2241af62c000000000000000000000000000000000000000000000000000000000000000000600000000000000000000000000000000000000000000000000000000000000020da218e19b01323676b95fc6b1a436307b3bcee31604aca50aaf6aa02ac89ae0e",
        "nonce": "0x8",
        "chainId": "0xaa36a7"
      },
      "additionalContracts": [],
      "isFixedGasLimit": false
    }
  ],
  "receipts": [
    {
      "status": "0x1",
      "cumulativeGasUsed": "0xf5b27f",
      "logs": [
        {
          "address": "0x779877a7b0d9e8603169ddbd7836e478b4624789",
          "topics": [
            "0xddf252ad1be2c89b69c2b068fc378daa952ba7f163c4a11628f55a4df523b3ef",
            "0x0000000000000000000000009c0c78085504642a852020b28d4a15826ab36e94",
            "0x0000000000000000000000009ddfaca8183c41ad55329bdeed9f6a8d53168b1b"
          ],
          "data": "0x00000000000000000000000000000000000000000000000029a2241af62c0000",
          "blockHash": "0x8a022cb93a5f5c8f1bc359babffe5bd9245728a798ca7b4efd285823825bc3e8",
          "blockNumber": "0x8ba669",
          "blockTimestamp": "0x68bd51ac",
          "transactionHash": "0x51dc9d31552d03a82ac94224ad750bf73c30e728d7d8ae49e46c61c80aede0d9",
          "transactionIndex": "0x80",
          "logIndex": "0xa8",
          "removed": false
        },
        {
          "address": "0x779877a7b0d9e8603169ddbd7836e478b4624789",
          "topics": [
            "0xe19260aff97b920c7df27010903aeb9c8d2be5d310a2c67824cf3f15396e4c16",
            "0x0000000000000000000000009c0c78085504642a852020b28d4a15826ab36e94",
            "0x0000000000000000000000009ddfaca8183c41ad55329bdeed9f6a8d53168b1b"
          ],
          "data": "0x00000000000000000000000000000000000000000000000029a2241af62c000000000000000000000000000000000000000000000000000000000000000000400000000000000000000000000000000000000000000000000000000000000020da218e19b01323676b95fc6b1a436307b3bcee31604aca50aaf6aa02ac89ae0e",
          "blockHash": "0x8a022cb93a5f5c8f1bc359babffe5bd9245728a798ca7b4efd285823825bc3e8",
          "blockNumber": "0x8ba669",
          "blockTimestamp": "0x68bd51ac",
          "transactionHash": "0x51dc9d31552d03a82ac94224ad750bf73c30e728d7d8ae49e46c61c80aede0d9",
          "transactionIndex": "0x80",
          "logIndex": "0xa9",
          "removed": false
        },
        {
          "address": "0x9ddfaca8183c41ad55329bdeed9f6a8d53168b1b",
          "topics": [
            "0x1ced9348ff549fceab2ac57cd3a9de38edaaab274b725ee82c23e8fc8c4eec7a",
            "0xda218e19b01323676b95fc6b1a436307b3bcee31604aca50aaf6aa02ac89ae0e"
          ],
          "data": "0x000000000000000000000000000000000000000000000000000000000000000000000000000000000000000000000000000000000000000029a2241af62c0000",
          "blockHash": "0x8a022cb93a5f5c8f1bc359babffe5bd9245728a798ca7b4efd285823825bc3e8",
          "blockNumber": "0x8ba669",
          "blockTimestamp": "0x68bd51ac",
          "transactionHash": "0x51dc9d31552d03a82ac94224ad750bf73c30e728d7d8ae49e46c61c80aede0d9",
          "transactionIndex": "0x80",
          "logIndex": "0xaa",
          "removed": false
        }
      ],
      "logsBloom": "0x00000004000000000000000000000000000000000020000000000000020000000000000000000000000000000000000000000000000000000000000000000000000000000000010000000008000000000000000000000000000020000020000008000000000000000000000000000000000800000000000000000010000040000000000000000000000000010000800000000020400000000000000000000000000000000000000000000000010000000010000000000000000004000000000000000002000000000020000000000000000000000000000100000000000000000210000000000000800000000000000000000000000000000000000000000000",
      "type": "0x2",
      "transactionHash": "0x51dc9d31552d03a82ac94224ad750bf73c30e728d7d8ae49e46c61c80aede0d9",
      "transactionIndex": "0x80",
      "blockHash": "0x8a022cb93a5f5c8f1bc359babffe5bd9245728a798ca7b4efd285823825bc3e8",
      "blockNumber": "0x8ba669",
      "gasUsed": "0x133b1",
      "effectiveGasPrice": "0x8667c",
      "from": "0x9c0c78085504642a852020b28d4a15826ab36e94",
      "to": "0x779877a7b0d9e8603169ddbd7836e478b4624789",
      "contractAddress": null
    }
  ],
  "libraries": [],
  "pending": [],
  "returns": {},
  "timestamp": 1757237676,
  "chain": 11155111,
  "commit": "1b08e0d"
}